:020000040001F9
:10B00000582E002015B101002FB1010031B101000F
:10B010000000000000000000000000000000000030
:10B0200000000000000000000000000033B101003B
:10B03000000000000000000035B1010037B1010040
:10B0400039B1010039B101005DB4010039B101002D
:10B0500039B101000000000029B2010039B101003E
:10B0600039B1010039B1010039B1010039B1010034
:10B0700039B1010039B1010039B1010039B1010024
:10B0800039B1010075B3010039B1010039B10100D6
:10B0900095B3010039B101009DB3010039B1010040
:10B0A00039B1010039B101000000000000000000CA
:10B0B0000000000000000000000000000000000090
:10B0C0000348854600F09EF8004800470DDA01006D
:10B0D000582E0020401E00BF00BF00BF00BF00BFB1
:10B0E00000BF00BF00BF00BF00BF00BF00BFF1D165
:10B0F00070470000401E00BF00BF00BF00BF00BF80
:10B1000000BF00BF00BF00BF00BF00BF00BFF1D144
:10B11000704700000321094802680A43026008489A
:10B1200002680A4302600748804707480047FEE775
:10B13000FEE7FEE7FEE7FEE7FEE70000240500402D
:10B1400054050040BDB30100C1B0010030B50B464D
:10B15000014600202022012409E00D46D5409D42F1
:10B1600005D31D469540491B254695404019154677
:10B17000521E002DF1DC30BD70B50024254600289C
:10B1800001DA01244042002901DA01254942FFF792
:10B19000DDFFAC4200D04042002C00D0494270BDDF
:10B1A00003460B439B0703D009E008C9121F08C0E0
:10B1B000042AFAD203E00B780370401C491C521E8B
:10B1C000F9D27047D2B201E00270401C491EFBD296
:10B1D00070470022F6E710B513460A4604461946A2
:10B1E000FFF7F0FF204610BD30B5044600200346AF
:10B1F00000E05B1C934203D2E05CCD5C401BF8D0C6
:10B2000030BD0000064C0125064E05E0E36807CC82
:10B210002B430C3C98471034B442F7D3FFF754FF4C
:10B220006CEE01008CEE0100F8B50024FF2501351D
:10B23000012627460094284602F080FE002808D008
:10B2400034484068304204D0334800212818344341
:10B2500001602D1D76007F1CADB2042FEBD3FF20C3
:10B260007D3002F06BFE002807D02C4800210160E1
:10B27000400704432A48006900902A4F200712D053
:10B280000126002526420AD02748AA00111808697D
:10B290000969C004C00E8903BA58890F9047760027
:10B2A0006D1C042DEED3002C30DA00241D4E00213D
:10B2B000301940304156491C25D00778BD06AD0EE7
:10B2C000284601F093F980003658002E1BD0BF09A4
:10B2D0000121A940154AA80080180068009A80033F
:10B2E000800F114202D0022802D00CE003280AD1BC
:10B2F000032F05D102280AD00221284602F002FEBF
:10B3000039462846B047641C042CCFD3F8BD03212E
:10B31000F3E7000000630040006000407C610040F3
:10B3200000050050D42500200065004000070050B3
:10B330008307FF22DB0E9A408907090E99400028F7
:10B340000BDA0007000F0838830808489B0018181C
:10B35000C36993430B43C3617047830804489B0050
:10B360001B181868904308431860704700ED00E010
:10B3700000E400E010B506490020086048608860DD
:10B38000C860034940390860486003F02DFB10BDD8
:10B390004011014010B503F0BDFA10BD10B50648CC
:10B3A0004068002805D08047002801D000F006FA48
:10B3B00010BD02F097F910BDD01F002010B502F0AB
:10B3C000DBF9002805D01F491D484860C8131E49F5
:10B3D00088611E48018CC9B201290BD1828C1207E9
:10B3E00008D1028D1206120F042A03D1828D120693
:10B3F000120F0AD0012921D1818C09071ED1018D9C
:10B400000906090F0A2904D007E0114A01219160B9
:10B41000F5E7828D1206120F05D00D290ED1808D11
:10B420000006000F0AD10B480168012904D00A491F
:10B43000016001680129FCD1C021416110BD0000FB
:10B44000DFFF07C000050040006C0040C00F00F0A7
:10B450000006004000EC06407593000010B503F0B4
:10B4600029FB10BD30B47446641E2578641CAB42C1
:10B4700000D21D46635D5B00E31830BC184702E054
:10B4800008C8121F08C1002AFAD17047704700206F
:10B4900001E001C1121F002AFBD17047F7B584B04B
:10B4A0000025168807461580406B1446002813D0E7
:10B4B00003780598032E51D30221017021881122AF
:10B4C000491C89B2218042542188491C89B22180BB
:10B4D00043542088401C2080386B00281DD005462E
:10B4E0002088059902461232B24237D811220A54F6
:10B4F00020881022401C80B220800A542088401CE2
:10B5000020800F202A5C2388401ECA54228840B223
:10B51000521C22800028F5DA00253846203002909F
:10B52000807B002806D033462246059902F070F948
:10B53000050014D10298407B002806D032462146EF
:10B54000059800F0DFFC050009D1B878002823D069
:10B55000059886462088001DB04202D90C2007B00D
:10B56000F0BD684679DF0028F9D1218803207246B2
:10B57000505420881921401C80B22080115420880A
:10B580007146401C80B2208041186846008803F054
:10B5900025FB218840182080F878002817D02188C2
:10B5A00003230A46FB56C91C0598B142D6D802218E
:10B5B000815421880122491C89B22180425421886A
:10B5C000491C89B2218043542088401C208078681F
:10B5D000002817D021880023C3560A46C91C0598A5
:10B5E000B142BBD80221815421880A22491C89B268
:10B5F000218042542188491C89B2218043542088EB
:10B60000401C2080388900280AD0009438460196D2
:10B61000062202210830059B03F05FFB05009ED146
:10B62000388A00280AD00094384601960722032160
:10B630001030059B03F051FB050090D1388B00289A
:10B640000AD0009438460196152214211830059B23
:10B6500003F043FB050082D1386A002806D0334648
:10B660002246059901F022F90500D8D1786A002810
:10B6700006D033462246059902F08CFA0500CED159
:10B680000298007B002807D03346224638460599A9
:10B6900002F06CFF0500C2D13878002807D033468D
:10B6A00022463846059902F0A9FA0500B7D1284686
:10B6B00055E710B501220221002000F0C9FD002845
:10B6C00001D0072812D107220221012000F0C0FD7D
:10B6D000002801D0072809D100210A22084600F0DD
:10B6E000B7FD002801D0072800D1002010BD0000C0
:10B6F000044842680121C9050B46934383600A4010
:10B70000C26070470005005070B50024064D06E089
:10B710006968E000085C012102F004FB641C2878E1
:10B720008442F5D3002070BD9C1F0020F8B515465B
:10B730000C460646052A01D20720F8BD02F0C8FBD8
:10B74000002803D102F09AFB0028F6D1104900200E
:10B750004E600C70C8608D6008610E4D0DE0E00019
:10B7600069688019009181786A46517000780A4AA8
:10B77000694602F027FB0028DFD12046641EE4B2B0
:10B780000028ECD1054A0021024800F04FF8F8BD2E
:10B790009C1F002064EE01001DD6010075CA010047
:10B7A000BFF34F8F04490348C860BFF34F8F00BFFA
:10B7B000FDE700000400FA0500ED00E00EB50021F1
:10B7C000029000916A4601910148FFF7E9FF0000ED
:10B7D00001400000014B1B6818470000CC240020EA
:10B7E00038B50C46A2680C235A43064B09789D587D
:10B7F000054A126A00920246204608302369A8478B
:10B8000038BD0000BC250020781F002010B5064977
:10B8100014230A785A435118091DFFF7E1FF042049
:10B8200002F000FF10BD0000F0240020094B9B68CF
:10B83000002B07D0002A07D0002805D00068037C21
:10B84000002B03D0082070470720704741744261E5
:10B8500000207047B01F0020FFB59007002581B081
:10B8600014460E46002832D11B4F002C31D002F076
:10B8700029FE049878610320387033461821224647
:10B8800000204B43BC601834C10089180D704D7006
:10B890008E704C601C19401C0328F5DBFD607D7028
:10B8A00001240E48BD702405046003211420FFF715
:10B8B0003FFD0B4804600B4C0198A0600321112050
:10B8C000FFF736FD60683861002005B0F0BD072045
:10B8D000FBE7BD60FBE70000B01F002080E200E056
:10B8E00000E100E000150140FEB50D461B4917467A
:10B8F0008968044600292AD0002C28D0052D01D2C1
:10B900000720FEBD6069002821D0607C012820D07E
:10B91000002603F0A5F9C00010490190896840187D
:10B92000694603F0C7F9002815D0012101700C49C0
:10B93000446049680830E2C00849019889684118A4
:10B9400068460078487003F027F80020FEBD082004
:10B95000FEBD2E46DDE70420FEBD0000B01F002026
:10B9600000150140F8B5134D0446A96800291CD004
:10B97000002C1AD06069002817D00026267403F026
:10B980006FF9C700A8686946381803F093F90028D2
:10B990000DD0022101704460A8683918684600780B
:10B9A000487002F0F9FF3046F8BD0820F8BD0420C9
:10B9B000F8BD0000B01F0020F0B50C4693B01F2169
:10B9C0006A461180072600279180002809D0C17897
:10B9D00049070DD502A9FFF761FD002809D102AD85
:10B9E00001E000251780002C0ED0E078002802D05E
:10B9F000304613B0F0BD01AA0AA92046FFF74EFD5C
:10BA00000028F6D10AAA02E068460022878068462C
:10BA10008088C3B268460088C1B2284672DFE8E772
:10BA200070B50D4604991646040042D0002E40D051
:10BA3000424800224271C3600161242231464048DD
:10BA4000FFF7AEFB00F0D4F83D493431084610381A
:10BA500001602031816038215C38FFF7BAFB38483B
:10BA6000217838380170A1788170E178C1706178EF
:10BA700041706269216942610161E268A168C26046
:10BA800081600146E369A269CB618A61616A00292C
:10BA900019D00146AC310246B83241628A60636A0D
:10BAA0001B880B80616A436A898899800021436AF8
:10BAB00006E00E2070BD666AB668765C5654491C76
:10BAC0009E888E42F7D8A16A00291CD01C4AAC324D
:10BAD00011460C398A608162A36A9B888B80A16AB7
:10BAE000836A098819800021836A04E0A66AB6681F
:10BAF000765C5654491C9E888E42F7D82C210A5DEC
:10BB00000F4918390A73216A002909D00B491431E9
:10BB10000162226A52884A80216A026A0988118079
:10BB20006168002904D00549891D41606168416050
:10BB3000034829463838FFF73FFF70BD2C1F00200F
:10BB40009822002010B502881C4C102A17D0002122
:10BB5000112A1AD0192A11D1807900280ED16079C2
:10BB600001281ED0022822D0032822D0042805D183
:10BB70002171E2680846002A00D0904710BD017D7F
:10BB80000129FBD18088208110BD617080882189C6
:10BB90008842F9D1012005E021690029F4D08847C5
:10BBA00010BD022000F04CF80028F5D110BD032094
:10BBB000F8E7032020710420F4E700002C1F002088
:10BBC00010B5022801D003280ED1084C2078002897
:10BBD0000AD000202070607900F032F8002803D0ED
:10BBE0002169002900D0884710BD00002C1F0020CB
:10BBF00010B507210148FFF7ECFA10BD441F0020E3
:10BC000010B50D480078012814D10C4C607800283C
:10BC100010D16079002802D074DF00280BD10120F8
:10BC20006070607900F00CF8002803D021690029C9
:10BC300000D08847002010BD982200202C1F002033
:10BC4000F0B5754C87B06071002606A8069602F024
:10BC5000F1F90127082806D000286FD1069800289E
:10BC600002D02770D4E00696FFF7C2FF6B4D6878CC
:10BC7000002802D06079012805D0A87800280AD0D1
:10BC80006079022807D1E168002903D0E770082015
:10BC9000884700E0E6706079012808D168780028BC
:10BCA00009D05D48193002F081F9002803D060798D
:10BCB000022802D00CE002206071A878002805D08C
:10BCC0005548193002F072F9002801D10320607143
:10BCD000287B002804D16079032801D104206071F9
:10BCE000287E002804D16079042801D1667126716C
:10BCF000E16800290AD06079032801D0042805D121
:10BD00002878002802D06078002818D0A670182162
:10BD10006846FFF75EFA684606700196067203965B
:10BD2000607901280FD0022816D03C4E24363746C1
:10BD30005C3F03281CD004285ED13BE069E0A7707B
:10BD400007208847E3E734481830019068460770B9
:10BD500046820682277152E02F48183001906846CB
:10BD6000077029894182A98801820220207146E05A
:10BD7000A88A69464882288A08822848243003F025
:10BD80001BF8002805D02878002802D06078002809
:10BD900001D003202FE00220694608720420039698
:10BDA000F8701E4800213838FFF706FE002830D111
:10BDB000052020E0A88B69460882288C4882174815
:10BDC000243002F0F9FF002805D02878002802D09E
:10BDD0006078002801D004200DE002206946087236
:10BDE00004200396F8700D4800213838FFF7E4FD71
:10BDF00000280ED1062020716079002803D0684603
:10BE000073DF002805D1E168002901D02079884737
:10BE1000002007B0F0BD00002C1F00209822002059
:10BE200070B5054601461C220E48FFF7B9F90E4CC5
:10BE3000002626702968002906D00822201DFFF759
:10BE4000AFF9201D7ADF02E00748001D7BDF0028E4
:10BE500007D1401E60806670044A00210448FFF745
:10BE6000E5FC70BD842300204C1F0020FDEB010089
:10BE700004EE0100F8B5214C028800271E4DE6892A
:10BE8000102A15D01E49112A21D0122A2DD0502A4D
:10BE90001CD1C288801DB24218D1028B022A15D152
:10BEA000C27E837E10021843C007C00F0CD112E07F
:10BEB0008188698001461048082216310C30FFF74E
:10BEC0006FF96F70002E01D100F038FDF8BD002031
:10BED000C04368806F700868FFF744FD0028F5D004
:10BEE000A1690029F2D08847F8BD811D02480822C7
:10BEF0000C30FFF755F9E7E74C1F002084230020A2
:10BF000004EE01007CB5054608880C4609309042D5
:10BF100001D90C207CBD684671DF0028FAD1218848
:10BF20000820685420881B21401C80B2208029549E
:10BF3000208800A9401C80B22080401906220131CF
:10BF4000FFF72EF920886946801D80B2208009788D
:10BF5000002900D0012129542088401C2080002085
:10BF60007CBD000070B5044600F0AEFE2046FFF731
:10BF700081FF204600F0A4F820880B4D102802D045
:10BF800011280CD108E0072000F086F9002801D024
:10BF9000FFF714FCA08801E00020C0436880204621
:10BFA000FFF7D0FD70BD0000001F002000B585B078
:10BFB000002348221749082002F084FB002801D002
:10BFC000FFF7FCFB6A460121002002F063FB00281A
:10BFD00001D0FFF7F3FB104802F0C0FA002801D0AF
:10BFE000FFF7ECFB684602F04BFB002801D0FFF79F
:10BFF000E5FB0A4802F03AFB002801D0FFF7DEFB20
:10C00000074802F077FB002801D0FFF7D7FB05B007
:10C0100000BD0000AC210020001E002065BF010013
:10C02000E9E801001CB5044681786A460C4802F034
:10C0300015F8002812D160781C21484309491C23B7
:10C0400040181A46694602F0CFF8064806494C30B7
:10C05000807A80000A582146684690471CBD00003F
:10C06000701F0020802400201CEE01007CB5134EC0
:10C0700000250C463060002918D06946002000F0E9
:10C08000B5F8002819D101A9012000F0AFF8002867
:10C0900013D1684601790020002901D0022004E074
:10C0A00069460978002900D00B20207070680028AC
:10C0B00002D1FFF7FEFA054628467CBD201F00206E
:10C0C00010B51C4C0188606810290DD011290AD1C7
:10C0D000401E606007D1FFF7ECFA002803D021680A
:10C0E000002900D0884710BD00281ED10021012260
:10C0F000084600F0ADF8002801D0072811D107222A
:10C100000221012000F0A4F8002801D0072808D15E
:10C1100004220221002000F09BF8002805D0072807
:10C1200003D02168002900D088476068401C606007
:10C1300010BD0000201F002010B5032000F000FA01
:10C14000002801D0062800D1002010BDF8B5074610
:10C150000024234802E0641C042C1AD2A200825856
:10C16000BA42F8D1042C14D21D481E4E0C380029B6
:10C1700029D001290ED002290BD160002018801986
:10C180004578002D05D018480169002901D02846BE
:10C190008847F8BD61006118755C8E1971780029B7
:10C1A0000CD011490A224968806851430E4A521C3A
:10C1B000FFF79AFB002801D10B4847700A48B17875
:10C1C00014300155DDE78068FFF7CCFB06486100BD
:10C1D000611814308919005D8D78A842D1D0F8BD5E
:10C1E000D4ED010034220020081F002004280CD2C6
:10C1F000074A1269074B80001B5C0120984090435E
:10C2000000D001200870002070470020FAE70000ED
:10C2100000050050D4ED010010B5042806D0072811
:10C220000ED00A2801D102F0E8F910BD0748132109
:10C23000408876DF06E00028F7D0FFF7BFFA10BD90
:10C24000FFF7DEFC0828F6D110BD0000001F00201B
:10C2500070B50023042811D2440004190D4D012AA1
:10C2600002D101290DD0002246008019094E801903
:10C2700000290CD0012906D0022906D00723184630
:10C2800070BD0D30C2B22A55F9E74270F7E78270EF
:10C29000F5E700003422002010B5054A0146127A65
:10C2A0000020D20702D0084600F054F810BD00006C
:10C2B000081F002070B50E461F4905464E608D6070
:10C2C00000200A61A9071ED500240122114620463C
:10C2D000FFF7BEFF641C042C02D20028F5D012E048
:10C2E000002810D1720804211448FFF71FFA002813
:10C2F00009D1FFF709FA002805D11048104A00219A
:10C300001438FFF793FAE90705D00F490D4A8A6000
:10C310000023CB608A6100280DD108480B4A002118
:10C320001C38FFF783FA002805D10448084A012188
:10C330001838FFF77BFA70BD081F0020E4ED0100FC
:10C340007DC501004000C0010005005065D8010016
:10C35000F1B60100FEB5744D0722EB6892059A43D1
:10C3600002936B6800939C0006461B190020019302
:10C37000402107466D4C3300FFF774F8180D141474
:10C3800035445162768279828BD39898989898C078
:10C39000C5C8CDD3D3136649029A9143A160E76023
:10C3A0002F70FEBDA260E7606068614A50404006A1
:10C3B00009D5A160E760022E02D1E120C0000AE0A9
:10C3C0007D20400107E0E160A760022E01D1C82076
:10C3D00001E0FF2091302E706421FEF7B7FE009936
:10C3E000414300223BE0A260E7606068504A504051
:10C3F000400604D5A160E76019204001EBE7E16049
:10C40000A760E4E7A260E7606068494A50404006E0
:10C4100002D5A160E760D3E7E160A760D9E7A26039
:10C42000E7606068424A5040400602D5A160E7607C
:10C4300001E0E160A7602E700098410000220EE04C
:10C44000A260E76060683A4A5040400602D5A160A9
:10C45000E76001E0E160A7602E7000990022354896
:10C460000068FFF741FAFEBDA260E7601BE061686B
:10C470000120800502468A43A2600140E16010E08D
:10C480006068012189050A468243A2600840E06095
:10C49000E3E76068012189050A468243A2600840FB
:10C4A000E0600199CAE7E160A7602AE0214840689E
:10C4B000FFF758FA11218A1B01D0002806D01C4A28
:10C4C000E9681140A160E760EF60FEBD0121C90588
:10C4D000E960012A0CD91046C82148436421FEF7BF
:10C4E00035FE69680022414312484068FFF7FCF9B5
:10C4F0000F4AE9681140E160A760FEBD0C49A160E8
:10C50000E7602E70FEBD07229205ADE70A49A160E3
:10C51000E7600904C7E70321C905A160E76007498F
:10C52000C1E70349BFE70000081F002000050050D5
:10C530004000C001C8ED0100400080014000400003
:10C54000F0B500210B4C0C4D03273F048A00A25884
:10C5500092005619326801238B40034000D0032318
:10C56000BA431B0413433360491C0429EED3002053
:10C57000F0BD0000D4ED01000007005010B50078B8
:10C580000221FFF7E3FD10BD0022D24383000449DE
:10C590000428CA5002D308182030027770470000E0
:10C5A000D4250020F0B50025ED43002A02D0002359
:10C5B000042601E0042308260B4C04E09F00E75901
:10C5C0007F1C04D05B1CB342F8D32846F0BD26186C
:10C5D0005DB2203635709E00A151002AF5D1E118D8
:10C5E00020310877F1E70000D4250020024909181E
:10C5F0002020085670470000D4250020F8B53E489A
:10C600001422017851430C18E0680C2148433A4940
:10C610002769CC314018058941890091241D46685D
:10C6200001F0AEFD01463846FEF790FD002932D0FC
:10C6300000200099A2884D436188AE198918CD1950
:10C6400000222E4900280A6109D001F099FD618875
:10C65000884222D0B54202D1A08800281DD0A0680F
:10C6600003281AD001F08CFDA188CA190146104692
:10C67000FEF76CFD214C8808E06001F081FD014669
:10C680002846FEF763FD002911D00020B5422FD0C7
:10C6900000280ED02CE00120CBE701F071FD01460F
:10C6A0003846FEF753FD15494861032021E001207B
:10C6B000ECE7ADB2B7B201F063FD01463846FEF7D4
:10C6C00045FD064601F05CFD01462846FEF73EFDAD
:10C6D000864201D1781B09E001F052FD064601F0C7
:10C6E0004FFD01462846FEF731FD701A8008206193
:10C6F000022001F097FFF8BDF0240020781F0020F1
:10C7000010B507481422017851430818007904280D
:10C7100002D000F059F810BD012001F083FF10BDD8
:10C72000F024002010B50B4814220178514308185A
:10C73000094AC18811620079012806D0032801D076
:10C74000042801D1FFF75AFF10BD012001F06AFF54
:10C7500010BD0000F0240020781F00201422504358
:10C76000054A002180180171C18002220161C26066
:10C770004161018170470000F0240020F8B5104CA1
:10C78000069E65780A2D19D027787D190A2D00D3C9
:10C790000A3D14277D432D1928716A6103C9296157
:10C7A000E860EB802E816078401C6070054800785E
:10C7B000002801D1FFF7B6FF0020F8BD0420F8BD26
:10C7C000F0240020781F002010B50D4C1421207893
:10C7D000484301190020091DFFF702F82078FFF7F0
:10C7E000BDFF6078401E60702078401CC0B2207091
:10C7F0000A2801D100202070002001F013FF10BD95
:10C80000F0240020F8B52348C16800293ED00E6806
:10C8100021494C680769C078E11B0D022D0AED1C07
:10C82000002814D101201D4A000450601B4A403AE0
:10C8300050601B49400008601A4908601A490120ED
:10C8400008602F20FEF756FC12490120C870B5423F
:10C8500000D23546E81900020F4B000A4033186039
:10C860000D4A5168001B091B0902090A0002000A4F
:10C87000C91C814209D9506818602F20FEF73AFC84
:10C8800001200749400480390860F8BD01F01AFE14
:10C89000F8BD0000B01F002000150140401301400A
:10C8A00080E200E000E100E000100140F8B506463B
:10C8B000108814468446801D0D46984201D90C20EC
:10C8C000F8BD32880720062AFAD31927FF01184B32
:10C8D000BA4201D99A42F3D171880629F0D3B942FC
:10C8E00001D99942ECD19A4203D0994201D08A42AF
:10C8F000E6D805216046295420881221401C80B2C8
:10C90000208029542088401C80B220804119308822
:10C9100002F064F92188401880B2208041197088A3
:10C9200002F05CF92188401820800020F8BD00004A
:10C93000FFFF000010B5FEF741FF10BDF8B5164827
:10C9400000F00CFF144D00260C3D144C002807D0BD
:10C95000616900291CD001206A461070684616E003
:10C960002878002805D06169002911D06846067032
:10C970000DE0687800280DD0A16809480022006801
:10C98000FEF7B2FF002803D0A169002900D0884734
:10C990002E70F8BD6168F0E7581F00208423002046
:10C9A00004EE010070B5094B04469E7A082000256C
:10C9B0000E4207D00648844202D01889A04202D114
:10C9C0000020156070BD052070BD0000C02400204F
:10C9D000FFFF00000C214843064910B50122401812
:10C9E0008272911E0181FF21C1720721FEF7F1FBC6
:10C9F00010BD0000C024002010B5134C20790007A2
:10CA00001FD46069401C6061E068002801D00420E8
:10CA100004E000F0D5FE002803D0022001F05AFF08
:10CA200010BD2069002809D06068C10701D003202B
:10CA3000F4E70121084360600020EFE7FFF760FEA4
:10CA400010BD01F03BFF10BD781F002010B5084855
:10CA500041680A0708D48A0702D5012211434160C0
:10CA6000022001F037FF10BD01F028FF10BD0000CB
:10CA7000781F0020F8B500260124154D23E06968D1
:10CA8000F0004718387821462A698140114218D0B1
:10CA90008A432A6101F0E8F93A782146EB6891402F
:10CAA00019400346934099420BD17978012901D06E
:10CAB000012100E000217B684140002B01D010469D
:10CAC0009847761CF6B228788642D8D3F8BD000085
:10CAD0009C1F0020FEB50E46044681786A46234816
:10CAE00001F0BCFA002826D160780C21204F484381
:10CAF000C019807A40061FD4022E1DD0012E1DD0F1
:10CB00001C4DA0781C2148431B49002341181C22BE
:10CB10006846A847002813D0022E0CD020780C219C
:10CB2000484313490C314018807A144980000A5850
:10CB3000214668469047FEBD114DE2E7114DE0E702
:10CB4000022EF8D060780C214843C019817ABF22A8
:10CB50001140817260781C214843054940394118D1
:10CB60001C231A466846A847D8E70000701F00201B
:10CB7000C024002041E80100BC2300200CEE01008D
:10CB800031E4010051E3010070B50546114A124835
:10CB900000241C2363431B189B7EFF2B04D0641CC2
:10CBA000072CF6D3104670BD0A78022A09D01C2241
:10CBB00062431018FD22827607221030FEF7F0FA49
:10CBC00004E01C2161430818FE2181762C700022AC
:10CBD000E8E7000043800000BC230020F7B50525EE
:10CBE0000F4F06460024002E0AD01C206043C019B7
:10CBF000072231461030FEF7F7FA002807D00AE086
:10CC00001C206043C019018B0298814203D1019816
:10CC10000025046002E0641C072CE4D32846FEBD16
:10CC2000BC2300207CB5054681B26A46074801F066
:10CC300015FA040008D17421684601F03BFA04009B
:10CC400002D1284601F0BEF920467CBD701F0020AD
:10CC500010B5100001D0FEF7B1FD002010BD00009E
:10CC60001FB56946087301F091FA002801D0FEF75C
:10CC7000A5FD03A800F020FA002801D0FEF79EFDD4
:10CC800001A805210130FEF7A4FA6946487901227E
:10CC90001043E1210840DF210C300840694648710B
:10CCA000072088711020C871054800900A71054856
:10CCB00000F028FB002801D0FEF780FD1FBD00001A
:10CCC00051CC0100001F0020F0B5054693B00020B4
:10CCD0000290FF24EC480E940078002849D0EB4FD6
:10CCE0003868002845D001A800F0D8F9002801D004
:10CCF000FEF764FD281D05902A2069460883FF2061
:10CD0000002688710E710396E04C28880C3C102890
:10CD10000ED0A88803AA0221FFF744FE002807D1FD
:10CD200003980C2141430919CA7A69468A714871EE
:10CD30002888132217287CD00FDC10281BD011283C
:10CD400053D0132876D0142813D103980C214843CC
:10CD50000019C07AFF2871D08DE0CD4918286BD01A
:10CD60001C286AD0522804D1B87A8000095801A83A
:10CD7000884713B0F0BDC74F03AA01213846FFF71B
:10CD800011FE0028F5D103990C2048430222001916
:10CD9000827211236A4613745171A9880181072296
:10CDA000A91DFEF7FDF9687DC10707D04108B64807
:10CDB0000830405CFF2808D00E9006E03A460EA9E5
:10CDC000A81DFFF70BFF00280ED103990C22514339
:10CDD00009190E98C8728A7A08231A438A7269461A
:10CDE000887101A8FFF71EF939E103980C21484327
:10CDF0000119887AFD2210408872010706D5C00902
:10CE00000DD0002101A8FFF765FE08E06846807993
:10CE1000FF2804D001F0D6F8FF20694688710398F6
:10CE20000C225043102100198172122069460874A7
:10CE300015E17FE030E001E0D5E00EE1EA890EA9DE
:10CE40000020FFF7CBFE00280ED103980C225043A0
:10CE500000190E99C172837A0822134383726846BF
:10CE6000817101A8FFF7DEF803980C2148430019EF
:10CE7000C07AFF2806D003981C21484383494C39C7
:10CE80004018029003981C21484383494218A888FF
:10CE90000023029982DF6CE768460274039B0C2032
:10CEA00058430119887A042210438872C87AFF28EF
:10CEB00030D01620694608742420434373481A2151
:10CEC000303818180830FEF784F903980C214843CD
:10CED0000019817A40221143817203990C220020AB
:10CEE0004A430A901219D27A1C235A436A4B0C9077
:10CEF000D2180B921C2251431A46C432891807914A
:10CF0000089009903A1DA88807AB00217FDF002810
:10CF1000C1D1A4E00EA8FFF737FE002801D00646D5
:10CF2000DBE769460E98887103990C225143091971
:10CF3000C872D2E7787A400840007872039A0C20D1
:10CF40009446424311198B7AFB2003408B721420C4
:10CF50006F463874A879002804D0C87AFFF762FEBB
:10CF6000AE797CE0E879400779D5B879FF2876D0AA
:10CF700008273B438B72EB7A9B0708D51C25034699
:10CF80006B43454D5B199D7E6D086D009D76CB7A98
:10CF9000FF2B64D0A25C022A10D01C2250433E4DCD
:10CFA000072240191030FEF7FBF8684680791C21F3
:10CFB00048434019817EFD2211400EE061461C224B
:10CFC0005143324A4C3A89184A8A1C214843324913
:10CFD00040180283817E490849008176012101A819
:10CFE000FFF778FD3BE0A8790209012A23D1000769
:10CFF000000F01281FD103980C2242431219927A84
:10D00000120718D5242148432049303940181A21E5
:10D010000830FEF7DEF816206946087403980C21E4
:10D0200048430119887A602210438872787A022175
:10D03000084378720FE003980C2250430019827A5B
:10D0400080231A43827215206A461074B87A8000D1
:10D05000095801A88847002601E068460274324654
:10D0600004A901A8FEF7B6FB6846007C122800D090
:10D070007FE603980C2141430919897A0129F7D0E9
:10D08000FFF7A8FC75E60000601F0020CC240020FC
:10D090002CEE0100FFFF0000BC230020002806D07A
:10D0A000FF21017041708170C170002070470148FC
:10D0B000704700000E800000F0B585B0040036D047
:10D0C000294800250560457285722846FFF782FCD5
:10D0D000254824213038FEF77CF80026FF2730460B
:10D0E00000F070FF21488755761C072EF7D3742176
:10D0F000684681800721C1801D481C490090083185
:10D10000684601F0C7F800280FD1184E0120083EEC
:10D110003070207800280CD069468888C988484338
:10D1200081B23046103000F0C5FF05B0F0BD1148A7
:10D13000FBE7114F00240D48A1B202AA083000F00D
:10D140008DFF002809D11C206043C01900231C2238
:10D1500002A901F049F8002801D03570E5E7641C08
:10D16000072CE8D3E1E70000CC240020681F002052
:10D170007DD101000E800000BC230020FFB55C487B
:10D180008FB00068189F1E46002873D0742F71D886
:10D190006846FFF783FF002801D0FEF70FFB00244D
:10D1A000684604700471254605970696A9B20DAA33
:10D1B000504800F053FF002806D108220DA90F980F
:10D1C000FEF712F8002817D06D1C072DEED3684625
:10D1D0008578FF2D4ED01098032810D046481C218A
:10D1E000301AFDF7B3FF012707281ED204A80290CA
:10D1F000119800280BD011E068468570E7E7742F7E
:10D2000003D04020694608716CE02020FAE73846D8
:10D210003849A84010394968084261D0284601F0D1
:10D22000E3FC2020694608714AE031481C214C3853
:10D23000301AFDF78BFF00281DD02D4824213038EF
:10D24000301AFDF783FF01002C482CD040216A469C
:10D2500011712B498E4245D0274AA9001C3A5158DA
:10D26000B1423DD104A90291C07A854228D16846D5
:10D27000447025E034E004A8029020216846017142
:10D2800044701B480A940C300B905838079068463D
:10D2900080781C21484318494018089007A8069038
:10D2A000182005900CE0302269460A714C70CF704E
:10D2B000807A800704D4114824212438FDF789FF9F
:10D2C000109869460228087910D00221084369465F
:10D2D000087104A8029001A96846119AFEF77AFA2B
:10D2E00013B0F0BD694608790321EFE73843EFE753
:10D2F000CC240020701F0020BC230020C02400206C
:10D3000008EE010070B5064618480D460078002862
:10D310000ED01749002E0ED0002D0CD02868002802
:10D3200009D0144C2168002907D011480A3870BD73
:10D330000F48801F70BD084670BD20600522691D22
:10D34000201DFDF72DFF2879A072207A02214008C8
:10D3500040000843FB2210402072E079012318436B
:10D3600008431040E0710020307070BD601F002045
:10D370000E800000CC24002010B50E4900234A780E
:10D380008C78A24212D0521CD2B24A70022A00D12A
:10D390004B704A78074B920018339A58026008691C
:10D3A00010180002000A0861012010BD036000206F
:10D3B00010BD0000B01F002010B5002803D01128B8
:10D3C00002D0FEF723FA10BD02480822416811433B
:10D3D000416010BD781F002010B51C4C21782046FC
:10D3E0004068012906D0022929D0032912D100075B
:10D3F00017D513E0000711D41548142201785143C2
:10D400000818C188A28B891A0904090CC18002D0AE
:10D4100001F018FA10BDFFF7D7F910BD00F0AEFB10
:10D4200010BD6069401C606100F0CAF9002803D09B
:10D43000207801F0F7F810BDFFF762F910BD6078B1
:10D44000044980000858804710BD0000781F002064
:10D45000F024002050EE010010B528DFFFF7ACFFEC
:10D4600010BD10B529DFFFF7A7FF10BD00207047E2
:10D470000020704700207047F8B506464078242108
:10D4800004464C4324490C2250436118224A00258B
:10D490004B6824328018AE462F469C46002B0CD099
:10D4A000827A1346D20908D05A0606D40D461A4A83
:10D4B000614689B2175908358E46174C00892434C5
:10D4C0003B4672462946A9DF0B2819D0002800D018
:10D4D0001248012F13D170780C214843001900899C
:10D4E0000F4AA7DF00280AD00E49884212D0082828
:10D4F00010D0891C88420DD011280BD00020F8BD17
:10D5000070780C214843012300190089724629468E
:10D51000A9DFE0E70148F8BD9C240020418000001D
:10D52000FFFF00000230000070B50C460146607835
:10D530002422084D50434019382300F055FE00289E
:10D5400007D161782422514349194A68521C00D1FD
:10D550004A6070BD9C240020F3B589B00D461A20A6
:10D560006946888368780C2103274843224E3B464E
:10D570008019008907AA6946AADF002838D168788F
:10D5800024214843741A001969468A8B0830FDF734
:10D590002BFE0028687807D02421484301194968E8
:10D5A00000290DD0154E0CE00C2141438919897AD0
:10D5B00089071DD4242148430019FDF70AFE17E00E
:10D5C0000F4E27506846828B687824214843001903
:10D5D000426068784843001969460830FDF7E0FD6D
:10D5E0006878242148430119382324220998B04738
:10D5F00000200BB0F0BD0000C024002031E4010089
:10D6000051E3010010B5FFF737FF10BD10B5FFF76C
:10D610008BFF10BD10B5FFF79FFF10BDF8B5074693
:10D62000104E0125BD403068FEF79CF900280DD151
:10D630000D4C2069284207D1384600F015FC00281F
:10D64000E06804D0284303E0A8432061F8BDA84364
:10D65000E0602069002228432061A1683068FEF75D
:10D6600043F9F8BD64EE01009C1F002070B51B4C0F
:10D67000207900072ED41A481422017851430D183E
:10D680002E6900F07DFD0146E8882A89761E801803
:10D690008019FDF75BFD21690025002909D061692A
:10D6A000814206D1E5606068012108436060002086
:10D6B0000AE000F085F8002802D00220E56003E0CF
:10D6C0002069002803D0032001F004F970BDFFF7A2
:10D6D00017F870BD01F0F2F870BD0000781F00204F
:10D6E000F0240020F8B51C4C2078002833D02069A5
:10D6F000002807D00026E068002805D00025002E6D
:10D7000004D011E00126F6E70125F8E7684652DF6C
:10D71000052804D0002804D0FEF750F804E00126C4
:10D7200002E0216900988847002D10D16088694681
:10D730000880A06861DF052804D0002804D0FEF727
:10D740003DF804E0012502E0E168A0688847002E6A
:10D75000DCD0002DD3D0F8BDD01F00204188054873
:10D760000288914204D34088814201D80120704749
:10D7700000207047501F00201048018CC9B20129B9
:10D7800017D1818C090714D1018D09060A0F03D125
:10D79000828D1206120F0ED0090F012903D1828D3E
:10D7A0001206120F07D0032903D1808D0006000F47
:10D7B00001D000207047012070470000C00F00F02A
:10D7C00070B50E481422017851430C18256900F0F9
:10D7D000D7FC0146E08822896D1E80184019FDF7AC
:10D7E000B5FC07494A69824206D3824202D10869E0
:10D7F000002801D0002070BD012070BDF024002061
:10D80000781F0020800701D000207047012070475A
:10D8100030B51588EC1C9C4201D90C2030BD022487
:10D820004C5513881C255B1C9BB21380CD54138868
:10D830005B1C9BB21380012807D0022807D0032865
:10D8400007D0042807D0072030BD002004E00120C5
:10D8500002E0CC5401E00320C8541088401C108022
:10D86000002030BD10B50448017AC90702D0007805
:10D87000FEF770FD10BD0000081F0020F8B52C4910
:10D88000C8680A690C780F798968864694460091C1
:10D890003EE00099E20055182A7836E018235343F9
:10D8A0006968521CC918AB78D2B2934200D10022E9
:10D8B0000B78022B02D0032B27D123E04E680346BE
:10D8C000014603E0B14204D00B46C96900291CD0CF
:10D8D000F8E7002919D08B4208D1C069002805D18A
:10D8E000144F0126BE600026B44601270E68C969A0
:10D8F000D961002909D00B689B190B6005E0017400
:10D90000C06900E000210028F9D169789142C5D1B1
:10D910002146641EE4B20029BBD1054962460A6172
:10D92000C8600F71704501D00120F8BD0020F8BD1E
:10D93000B01F002000100140F8B504463148002611
:10D94000C168009107784EE02E48F90080680D18F4
:10D9500043E0002C02D02046E4691FE0287818211B
:10D9600041436A68401CC0B251182870AA7890429E
:10D9700000D12E700A784868012A30D1027C002A32
:10D980002DD18A684260CA6882600A69C2604969AA
:10D9900081611C490979002900D046601949436812
:10D9A0000A699C46991A0902174B090A994202D240
:10D9B0008268891807E06146511A09028268090ADB
:10D9C0008A4202D9511A016000E0066046600121D6
:10D9D00086600174C66100F0E7FF002CB9D1287899
:10D9E00069788842BAD138467F1EFFB20028ABD191
:10D9F0000448C1680098814201D00120F8BD002090
:10DA0000F8BD0000B01F0020FFFF7F00002398B08A
:10DA10004E4A05211846FDF71FFF002801D0FDF7EB
:10DA2000CDFE4B4A4B490320FEF744FC002801D0B1
:10DA3000FDF7C4FE69460020FEF718FB002801D060
:10DA4000FDF7BCFE68460078022876D000216846C3
:10DA50000171FEF7ABFA68460079FFF701F9012082
:10DA600001461031684601730F223BA103A87CDFF9
:10DA7000002801D0FDF7A2FE002400945021684642
:10DA800001940180A0214180FF2184809131C180D7
:10DA90007ADF002801D0FDF791FE382101A8FDF7BB
:10DAA00098FB022168460171012585710621C1712B
:10DAB00085822D48069024210FA8FDF78AFB10A827
:10DAC0000572FF202D301390B42000941490274B42
:10DAD0000FAA002101A8FDF7A3FF002801D0FDF740
:10DAE0006DFE234803250560052000F01BFA7D200C
:10DAF000C00000F0D9F8052000F014FA1C21684697
:10DB0000FDF767FB0520C00301900F200004029081
:10DB1000009468460573C48104741648059016483D
:10DB200006906846FEF77CF9002801D0FDF746FE16
:10DB30000320FEF785F803E0FFE7012187E748DFD0
:10DB40000028FCD0FDF73AFEF9E70000E41F0020B2
:10DB500019C20100CD0C00004E6F726469635F54FE
:10DB6000656D706C61746500041F00206BDF01003F
:10DB7000140700508DDF010035C9010010B50448BD
:10DB80000822416891434160007800F04BFD10BDD0
:10DB9000781F002070B5144682880E4605462088FE
:10DBA000111D4118921C994201D8FE2A01D90C205E
:10DBB00070BD521C32542088FF21401C80B220804E
:10DBC00031542088401C80B220808119288801F0BF
:10DBD00005F82188401880B22080AA88002A09D040
:10DBE000A968002908D08019FDF7DAFA2088A988E9
:10DBF00040182080002070BD072070BDF8B50F468A
:10DC0000017814460546012902D16878002806D01B
:10DC10002088821C9A422DD8012902D006E00720D4
:10DC2000F8BD69784118891C994223D8181A801EBA
:10DC300086B2684606802188B81C081869467DDFD0
:10DC40000028EDD12878022805D169460988B1421B
:10DC500001D809210AE00821012805D16878B042DD
:10DC600002D86A46108001E068460680684600884F
:10DC7000FE2801D90C20F8BD2288401CB854208809
:10DC8000401C80B22080395420886946401C208086
:10DC90000988401820800020F8BD0020704700202F
:10DCA000704700207047000031B5054C04E0401E6D
:10DCB00000902046FDF70EFA00980028F7D138BDF5
:10DCC000E70300008207D30EFF229A408907090E5E
:10DCD00010B5994000280BDA03071B0F083B9C087E
:10DCE0000C4BA400E318DC6994430C43DC6107E0AF
:10DCF0008408094BA400E418236893430B43236072
:10DD0000C106C90E01208840044908600449086022
:10DD100010BD000000ED00E000E400E080E200E063
:10DD200000E100E0F3B581B00F46019800F06AF918
:10DD3000012400281E4E019817D0FEF757FC8019C9
:10DD40002030007F8009032802D0012806D007E098
:10DD50001848006901998C40204201D1022100E05D
:10DD60000321019800F0CEF8FEBD00F057F900281D
:10DD7000FAD00198FEF73AFC05468100C81D0E4A0C
:10DD8000F93089180A6980B222430A610B494018A8
:10DD900000210160002FE7D00198FEF727FC8000EA
:10DDA00030580028E0D00648AC404460FEBD00007A
:10DDB000D4250020000500500065004000600040B0
:10DDC00000630040FEB5044623480E46001920219A
:10DDD00041560027C8171346401C01D0082738E0D9
:10DDE000F27819462046FEF7DDFB0546401C2FD091
:10DDF000B078002807D01948A10009180868022245
:10DE00009043086007E000217378204600910A469D
:10DE1000019100F065F8F078002810D01048AA00B1
:10DE20001018317802690F4B1A400261E206D20CD9
:10DE30008907890B0A4301690A43026109E0064820
:10DE4000327840192030017F92011143017700E0C0
:10DE500004273846FEBD0000D425002000070050EE
:10DE600000650040FFE0FCFF03490969C140C807A5
:10DE7000C00F00D0012070470005005070B5124D52
:10DE80002879002801D0082070BD0F4900204039B2
:10DE9000421E0B182033401CC0B21A702028F8D341
:10DEA00000242046FEF770FB641CE4B2082CF8D373
:10DEB00003210620FFF706FF01200449C007486040
:10DEC00001202871002070BD14260020006300404E
:10DED00002480079002800D0012070471426002055
:10DEE00030B552000A439900039C0A432102049D65
:10DEF0000A4329040A43024980004018026030BDE9
:10DF000000070050820006481018026803231B0413
:10DF10009A430260026809040A43026070470000E5
:10DF2000000700500121044A814050680B4683439A
:10DF300093600840D06070470005005003494018C6
:10DF40000068012800D000207047000000600040F9
:10DF50004058002800D00120704703221202801888
:10DF60004068084000D00120704710B5002809D053
:10DF7000032806D10220FEF78FF9002801D0FDF713
:10DF80001DFC10BD00F039FB10BD000010B500787D
:10DF9000002807D104483B21408876DF002801D0C3
:10DFA000FDF70CFC10BD0000001F00200021425CAA
:10DFB000002A01D001207047491C0629F7D3002010
:10DFC0007047000070B505461C200D496843441891
:10DFD000204611300621FDF7FCF820461021FDF700
:10DFE000F8F8FF2121740020A176C0432083284641
:10DFF00000F0FAFD024A0020A9001C3A505070BD02
:10E00000BC2300200449081820214156042901DBC3
:10E010000120704700207047D425002004490818CB
:10E0200020214156042901D2012070470020704769
:10E03000D425002007490979490701D408207047F1
:10E04000002804D0044949780160002070470E2060
:10E0500070470000781F0020F024002070B5134B9B
:10E060001B795B0701D4082070BD002817D0002A57
:10E0700015D00368022B10D20C240D4D5C432E5991
:10E08000002E0AD0466860190489458940686143BA
:10E09000654371182818884203D8072070BD0E20E8
:10E0A00070BD13600020516070BD0000781F00201B
:10E0B000BC250020FEB5044626480E4600794007E0
:10E0C00001D40820FEBD002C25D02068022836D2BD
:10E0D0000C21214D48432958002930D0401941894D
:10E0E00002894068514309186068814227D9FFF7C7
:10E0F00089FB002811D06068019021680C225143EF
:10E100004F1979680091401A39890D46FDF71EF8BC
:10E11000002914D103E00E20FEBD1020FEBD2946CB
:10E120003046FDF713F8002909D1002E07D0788971
:10E1300000994543019849198019884201D907205F
:10E14000FEBD002002460090334621460320FEF724
:10E1500015FBFEBD781F0020BC25002010B5074828
:10E160004469601C06D000F00BF801462046FCF71D
:10E17000EDFF10BD01200007406910BD0010001028
:10E1800001200007006980B27047000070B50024CC
:10E1900013482546047044702846FEF7DFFA6D1CCC
:10E1A0000A2DF9D30F4D6C80FFF7D8FFC61EFFF77D
:10E1B000E7FF46430A4A0020AE60CC326C610C2176
:10E1C0004143545089180C81401C4C810228F6D3DD
:10E1D0002C70AC610420EC616860002070BD000010
:10E1E000F0240020781F0020FFB5284881B0007976
:10E1F0001F4616460C46400702D4082005B0F0BD65
:10E20000002C1DD0019800281AD02068022815D2B1
:10E210000C211F4D4843295800290FD041194A8924
:10E2200008894968424351186268914206D9002E14
:10E2300004D0B04202D3F119814203D90720DDE7AF
:10E240000E20DBE70198FFF7DDFA00281BD03846E7
:10E25000FFF7D8FA002816D06068FFF7D3FA002835
:10E2600011D060683246C1190198FCF799FF0096F9
:10E2700020680C2148432D58002202212046019B92
:10E28000A8470020BAE71020B8E70000781F002058
:10E29000BC250020F8B52C4D044628790E464007D1
:10E2A00001D40820F8BD002C20D0002E1ED02068FC
:10E2B00000281BD0FFF764FF0146A088814213D3DA
:10E2C000102811D3E08800280ED0FFF747FF471E23
:10E2D000FFF756FF4743E288A188A8684A4312180F
:10E2E000974201D3890703D00720F8BD0E20F8BD5F
:10E2F0006988022926D031600C22144B514370608A
:10E30000CA18506020685850A0881081E088508159
:10E31000FFF736FF0646FFF733FFA188E288401E6D
:10E32000514340183146FCF727FF0446FFF728FF0A
:10E330000146A86861430818A8606888401C688086
:10E340000020F8BD0420F8BD781F0020BC25002067
:10E35000F8B5044621481E46007915460F46400789
:10E3600001D40820F8BD002F1CD0002C1AD0216841
:10E37000022915D20C20414319484258002A0FD0D7
:10E3800008184289018940684A431018626890421F
:10E3900006D9002D04D0A94202D3A819884203D976
:10E3A0000720F8BD0E20F8BD3846FFF72BFA0028ED
:10E3B00011D03046FFF726FA00280CD06068FFF72E
:10E3C00021FA002807D02B463A4621460120009624
:10E3D000FEF7D4F9F8BD1020F8BD0000781F00202A
:10E3E000BC25002010B5114902460878002811D03C
:10E3F00004280FD0022A16D0032A0BD10A7912075B
:10E4000011D48A69521C8A61032A08D0022802D0DA
:10E4100000F008F910BD487800F05CFA10BD0D203E
:10E42000FDF7F4F910BDFEF7D7FF10BD781F0020EF
:10E43000F8B5044621481E46007915460F464007A8
:10E4400001D40820F8BD002F1CD0002C1AD0216860
:10E45000022915D20C20414319484258002A0FD0F6
:10E4600008184289018940684A431018626890423E
:10E4700006D9002D04D0A94202D3A819884203D995
:10E480000720F8BD0E20F8BD3846FFF7BBF900287D
:10E4900011D03046FFF7B6F900280CD06068FFF7BE
:10E4A000B1F9002807D02B463A46214604200096B1
:10E4B000FEF764F9F8BD1020F8BD0000781F0020B9
:10E4C000BC25002070B501240B49600408600B498D
:10E4D00040108860094940398860094D6C602F20E0
:10E4E000FCF708FEAC60074D00242F202C61FCF7E0
:10E4F00001FEEC7070BD000080E100E040130140BF
:10E5000000100140B01F002030B50A48FF21C57D32
:10E510000022094C0931094B002D625007D099693E
:10E52000437EC268D154417E491C417630BD986912
:10E5300030BD00001C2600200020004000250040C7
:10E540001FB501236A46137010720348019106C873
:10E55000684690471FBD00001C26002008B50249F0
:10E560000020009108BD0000001F0020FFB50746F5
:10E57000806A81B0144600283DD0002538462030FE
:10E58000009033E00C20B96A68430E18B088801CF4
:10E59000FE2802D90C2005B0F0BD22880299401C4B
:10E5A000885420881622401C80B2208002990A5488
:10E5B0002088401C80B2208002994118308800F0E9
:10E5C0000DFB2188401880B22080B288002A0AD032
:10E5D000B16800290FD0029BC018FCF7E1FD20882C
:10E5E000B188401820806D1C0098EDB2007BA842D5
:10E5F000C8D80020CFE70720CDE710B50020FDF7F1
:10E600004BFE002801D0FDF7D9F8FDF795FD002855
:10E6100001D0FDF7D3F83CDF002801D0FDF7CEF89C
:10E6200010BD000010B50F490028087009D001285E
:10E6300011D0022812D0032802D14869FEF70CFF3E
:10E6400010BD00208861C861074840780028F7D0D5
:10E65000FEF768F810BD00F0F5F810BD00F054F8B2
:10E6600010BD0000781F0020F0240020002803D0F7
:10E670000249C860002070470E207047D01F00205C
:10E680001CB5034901910091694660DF1CBD000083
:10E69000001F002070B50E46054614461421104692
:10E6A000FCF797FD01200021208021612173267253
:10E6B0006572002D00D0A072002070BD10B5FDF76E
:10E6C0006FF810BD70B5002901D08C0701D007206C
:10E6D00070BD064C0125A16062800549636010DFB2
:10E6E0000028F5D1257016202EDF70BDD01F002028
:10E6F000BDE60100002803D00249086100207047F0
:10E700000E207047D01F0020F8B5164C1422606808
:10E710004008400060601448017851430E18376982
:10E72000FFF72EFD01463846FCF710FD05466061F7
:10E73000FFF726FD0146F0887F1EC019FCF706FD95
:10E7400002228542606801D1104300E0904360607E
:10E75000E1681040084303D0002000F0BBF8F8BD8A
:10E760000220FAE7781F0020F024002010B50248AC
:10E770004069FEF771FE10BD781F002010B5FFF74D
:10E78000EDFC441EFFF7FCFC4443FFF7F9FC044991
:10E790004A69521E5043CA682146FEF762FE10BD08
:10E7A000781F0020F8B510481422017851430C1846
:10E7B0002569FFF7E5FC0146E088228980184019A9
:10E7C000FCF7C4FC0F46FFF7C9FC461EFFF7D8FC58
:10E7D0004643E0882289F1198018044A40191269D9
:10E7E000FEF73FFEF8BD0000F0240020781F002057
:10E7F00070B5FFF7C5FC0546FFF7B0FC441EFFF7F8
:10E80000BFFC60432946FCF7A1FCFEF725FE70BD66
:10E8100070B5FFF7B5FC8608FFF7B2FC07494969F8
:10E8200048430446FFF79AFC451EFFF7A9FC6843DE
:10E8300032462146FEF715FE70BD0000781F00200D
:10E840000020704770B514481422017851430C1809
:10E85000241DFFF795FC6188104E884211D2FFF706
:10E860008FFC61880D1AFFF78BFC8208A188E06895
:10E870004018216940194919FEF7F3FDFFF780FCA4
:10E8800007E0A288E06880188A082169FEF7E9FDA0
:10E890006088F06170BD0000F0240020781F002027
:10E8A00010B505480079000703D4012000F012F8E4
:10E8B00010BD00F003F810BD781F002010B504480B
:10E8C0000822416891434160407800F003F810BD90
:10E8D000781F00200249487002498000085800470C
:10E8E000781F00203CEE010010B50446FFF77AFDCA
:10E8F0002046FDF765F910BD10B505480079000701
:10E9000002D4FDF7FDFE10BDFFF7D8FF10BD0000DB
:10E91000781F0020FEB51F4C00252769E068029093
:10E920006846FEF729FD0190FEF7A8FF064601980C
:10E93000002822D000230098E16817E00E680A46FC
:10E94000864202D9301A086012E0801BF3180026B4
:10E950001660D668D169B446002E07D0FE1836027C
:10E96000360A566066469660D56115460029E5D19F
:10E970002846E160FEF7E0FF06E02846FEF7DCFFF0
:10E98000002801D1002E02D00298FDF73BFF0020A5
:10E990002071FEBDB01F0020012002490005086063
:10E9A0007047000000E200E010B50E4BD968002966
:10E9B00006D002680C68A24204D8A21A0A60C1619B
:10E9C000D86010BD0B4604E00B46C969121B002934
:10E9D00004D00C689442F7D3A41A0C600260C161A1
:10E9E000D86110BDB01F0020F8B51D4DEC68002C9B
:10E9F00034D01C48002740682969401A0602360AAC
:10EA00002068B04218D8361AC7192246107CE4692B
:10EA100000280FD0002010746B69002B07D091697B
:10EA200050699847002805D0FCF7C8FE02E05169FC
:10EA300090698847002CE3D16978A878814206D193
:10EA4000401CC0B2A870022801D10020A87004495F
:10EA50000006800D18310F50FFF79EFFF8BD000033
:10EA6000B01F002000150140FF2107481D31002282
:10EA700042500648828A8168895C828A521C82825E
:10EA80000348C16170470000002000401C260020A0
:10EA9000002500401FB500216A461170107204481D
:10EAA00082680192817506C8684690471FBD0000C4
:10EAB0001C260020F0B5454D012185B049022846AD
:10EAC000FFF74BFA01270026414C002824D0FF21F4
:10EAD00025312846FFF73CFA00281DD0FF202530BD
:10EAE0002E5081203B4980008860A07E002800D104
:10EAF0006F6002216846017037490868086003901A
:10EB0000E17D68460172E0680190E675267606CCE4
:10EB10006846083C90472BE004212846FFF71DFA81
:10EB2000002825D0FF2109312846FFF711FA0028D7
:10EB30001ED0FFF7E9FCE07D617E884218D1207E7F
:10EB4000002808D0627EE168E0752069E0602676E2
:10EB5000667610460AE0A07E002800D16F60812012
:10EB60001C4980008860E675607EE168FFF7E8FC7C
:10EB7000FF211D312846FFF7EBF900280DD0A18AAF
:10EB8000A07D814202D2FFF76FFF06E0FF211D3119
:10EB90006E50002801D0FFF77DFFFF214531284648
:10EBA000FFF7D6F900280ED0FF2045302E50A07E6A
:10EBB000002800D02F60E07D002804D0E675607E3C
:10EBC000E168FFF7BDFC05B0F0BD0000002000408B
:10EBD0001C26002000230040802400400870000A0A
:10EBE00048700220704700000121814002484268BD
:10EBF0008A43426070470000601F002038B5154905
:10EC0000154A488890420FD04A78144C521CD2B210
:10EC10004A70237B934208D3091D75DF002803D077
:10EC2000A169002900D0884738BD00254D70217C9E
:10EC3000002907D03B2176DF002803D0A1690029F5
:10EC400000D0884761690029EED068460570884782
:10EC500038BD00004C1F0020FFFF0000842300206F
:10EC600012494868C005C00D19D0103840B20028BC
:10EC700007DA0207120F083A920892005118C96980
:10EC800004E081080A4A8900891809688007C00ED3
:10EC9000C1400806800F012803D0032803D00220BA
:10ECA00070470020704701207047000000ED00E031
:10ECB00000E400E042788378521CD2B2934200D143
:10ECC00000220378934201D1002070470A70416806
:10ECD00040781822504308187047FFB583B0164695
:10ECE0000C9D0D9C1F46022200950194039800F094
:10ECF0000CF8002807D13B461022314600950194BC
:10ED0000039800F002F807B0F0BDFFB583B00746E6
:10ED100000200C9C8646268805463AE07868A900C3
:10ED200042181188684681805188C1800022694656
:10ED300001A865DF002839D168460178059881422D
:10ED400026D17046002801D0002200E0022220884F
:10ED5000891842180D998A4227D8714600290AD18C
:10ED6000401C80B22080069A049911542088401CCF
:10ED7000208001208646218806980A18694601A845
:10ED800065DF002812D16946208809784018208064
:10ED90006D1C3888A842C1DC704600280AD0208843
:10EDA000801B401E80B2FF2802D90C2007B0F0BDA6
:10EDB000069988550020F9E70179002902D1007BE6
:10EDC000002800D001207047F421002014220020E8
:10EDD000402200201100000012000000130000007B
:10EDE00014000000110003004DC1010012000300D7
:10EDF0004DC10100130003004DC1010014000300C8
:10EE00004DC1010064230020FFFFFFFFA3DC0100D0
:10EE100059D5010075D4010015D601009FDC010011
:10EE200029D5010071D401000DD601009BDC010041
:10EE300079D401006DD4010005D60100F1E701008D
:10EE400011E801006DE70100A5E701007DE7010081
:10EE5000A1E801004DCA0100F9C90100F9E801006B
:10EE60006DD6010038260020030000008CEE010062
:10EE7000001F0020E40000007EB4010070EF0100DC
:10EE8000E41F0020740E00008EB401000000FFFF9C
:10EE90000A1801000000000000000000000000004F
:10EEA0000000000000000000000000000000000062
:10EEB000000000000024F40000000000000000003A
:10EEC000FFFF000000000000000000000000000044
:10EED0000000000000000000000000000000000032
:10EEE0000000000000000000000000000000000022
:10EEF0000000000000000000000000000000000012
:10EF00000000000000000000000000000000000001
:10EF100000000000000000000000000000000000F1
:10EF200000000000000000000000000000000000E1
:10EF300000000000000000000000000000000000D1
:10EF400000000000000000000000000000000000C1
:10EF500000000000000000000000000000000000B1
:10EF600000000000000000000000000000000000A1
:040000050001B0C185
:00000001FF
